:1000000009C021C01AC169C01EC01DC01CC01BC0D0
:100010001AC019C011241FBECFE9CDBF10E0A0E661
:10002000B0E0E8E8F2E002C005900D92AE37B1070B
:10003000D9F710E0AEE7B0E001C01D92A938B107D2
:10004000E1F702D01FC1DCCFF89410927E0010922D
:100050007F008FE7809388001092800010928700C5
:100060001092860091E0909381001092820010928D
:100070008300109284001092850083B7816083BF53
:1000800089B7826089BF8BB780628BBF95BB78943C
:1000900021E08091820090918300A0918400B09132
:1000A0008500843435E9930738E0A30730E0B307CF
:1000B00080F39091880017BA28BB85B7877E80614E
:1000C00085BF85B7806285BF889585B78F7D85BFE1
:1000D0009093880010928100DCCF1F920F920FB690
:1000E0000F9211242F933F934F938F939F93AF932E
:1000F000BF93EF93FF938091820090918300A09132
:100100008400B0918500843425E9920728E0A20795
:1001100020E0B20708F083C080917E008F5F80935B
:100120007E0080917E00863010F010927E008091DB
:100130007F008F5F80937F00873010F010927F00E8
:1001400020918000293038F086B390E0809590951A
:100150008170907002C081E090E0009779F1809109
:100160008100882359F1293030F0109280001092DC
:1001700087001092860030918000E32FF0E0EC5869
:10018000FF4F208180918600909187000196909387
:1001900087008093860043E08A3A940788F01092A3
:1001A000870010928600832F8F5F809380008830B5
:1001B00038F0B09905C01092800002C020918800EC
:1001C00017BA81E088BBE0917F00822F90E00E2E6D
:1001D00002C0959587950A94E2F780FF0DC0F0E084
:1001E000EE0FFF1FEA59FF4F87B39081892B87BB22
:1001F00088B39181892B88BB809182009091830084
:10020000A0918400B09185000196A11DB11D80933D
:10021000820090938300A0938400B0938500FF91A7
:10022000EF91BF91AF919F918F914F913F912F91FE
:100230000F900FBE0F901F9018951F920F920FB640
:100240000F9211248F93EF93FF93B09913C0E09115
:100250007E00F0E0E05AFF4F80818093880010928A
:10026000820010928300109284001092850081E039
:1002700080938100FF91EF918F910F900FBE0F90AF
:080280001F901895F894FFCFC0
:1002880008412A636B7714040A0818100A02060446
:0E0298001808060208021040080104200800A1
:00000001FF
